:100000000C9486010C94B7010C94B7010C94B701C1
:100010000C94B7010C94B7010C94B7010C94B70180
:100020000C94B7010C94B7010C94B7010C94B70170
:100030000C94B7010C94B7010C94B7010C94B70160
:100040000C94B7010C94B7010C94B7010C94B70150
:100050000C94B7010C94B7010C94B7010C94443480
:100060000C94B7010C94B2370C94E8370C94B70198
:100070000C94B7010C94B7010C94B7010C94B70120
:100080000C94B7010C94B7010C94B7010C94B70110
:100090000C94B7010C94B7010C94B7010C94133372
:1000A0000C94B7010C94B7010C94B7010C94B701F0
:1000B0000C94B7010C94B7010C94B7010C94B701E0
:1000C0000C94B7010C94B7010C94B7010C94B701D0
:1000D0000C94B7010C94B7010C94B7010C94B701C0
:1000E0000C94B7016B356E355D3561356735A535D7
:1000F000723576357C35803584358A358E35923546
:10010000A53598359C35A0350C94A5350C94FB2C61
:100110000C942C310C946B360C9484350C9429324D
:100120000C94EB360C9464130C9457360C943E36B6
:100130000C947C350C9480350C948C150C945D35A6
:100140000C94C8160C9412380C94F5160C9498352F
:100150000C947A160C941C380C94AC190C94A715BA
:100160000C946F380C942F2C0C9476350C941D3114
:100170000C946B350C94F72C0C948E350C945A31EE
:100180000C94B1130C94C6150C9472350C946E3506
:100190000C940A310C94172C0C948A350C94C936A3
:1001A0000C9461350C94D0150C94AC250C94023150
:1001B0000C9449360C94A0350C9476150C94923519
:1001C0000C9467350C94F32C0C942D310C949C35C5
:1001D0007C3C3E5E2B3D3F2F5B5D3B2C2A225C002E
:1001E00000000A0B02090C0D0E08070304010000B1
:1001F00000000000000000000000000000000000FF
:1002000000000000000000000000000012111000BB
:1002100000000000000000000000000000000000DE
:1002200000000000000001021020200808102040FB
:1002300010204080020102010804020101020408AA
:100240001020408080402010080402018004020138
:100250008040201008040201080402010102040881
:10026000102040800102040810204080050505058B
:10027000070508080808020202020A0A080804041E
:10028000040401010101010101010303030303034C
:100290000303040707070C0C0C0C0C0C0C0C0202DB
:1002A000020206060606060606060B0B0B0B0B0BD8
:1002B0000B0B000020002300260029002C002F003B
:1002C00032000001000003010601090100002200C4
:1002D000250028002B002E00310034000201000010
:1002E000050108010B0100002100240027002A005D
:1002F0002D003000330001010000040107010A0154
:100300006413AC192F2C29321C38B11311241FBED1
:10031000CFEFD1E2DEBFCDBF00E00CBF16E0A0E022
:10032000B2E0E8E7F0E800E00BBF02C007900D92F2
:10033000A830B107D9F72CE0A8E0B6E001C01D92C3
:10034000AD34B207E1F713E0CAE0D3E000E006C045
:1003500022970109FE010BBF0E94153DC030D10755
:1003600080E00807A9F70E9460380C942A400C949A
:100370000000CF92DF92EF92FF920F931F930E94A3
:100380008E34672B682B692B41F40E948E346230C7
:1003900071058105910508F478C08CEA9AE00E9405
:1003A0003C306093430870934408809345089093D1
:1003B000460800914708109148082091490830915B
:1003C0004A08601771078207930740F46093470853
:1003D000709348088093490890934A080091470811
:1003E000109148082091490830914A086B017C011E
:1003F000C01AD10AE20AF30A970186010A3F1105E1
:100400002105310508F441C06093470870934808FE
:100410008093490890934A088CEA9AE00E946630DB
:1004200066E372E08091DD0A9091DE0A0E94BB389B
:100430006EE372E08091DD0A9091DE0A0E94BB3883
:100440000E948E34AB01BC012AE030E08091DD0ACD
:100450009091DE0A0E94AF3960E472E08091DD0A7B
:100460009091DE0A0E94BB3865E070E080E090E089
:100470000E94BD346AE070E080E090E00E94BD34EC
:1004800061E08CEA9AE00E94A9306FE776E988E99A
:1004900090E01F910F91FF90EF90DF90CF900C9420
:1004A000BD34CF93DF93EB012A813B81FC01338381
:1004B00022834C815D816E817F8144835583668375
:1004C0007783488559856A857B8540875187628710
:1004D00073872DE0FE013C96DC011C9601900D9285
:1004E0002A95E1F7298D3A8DFC01328F218FDF911A
:1004F000CF910895CF93DF93EC01CB01FB012281D3
:1005000033813B832A8344815581668177814C8383
:100510005D836E837F8340855185628573854887BF
:1005200059876A877B872DE535E0398328832DE05D
:100530003C96DE011C9601900D922A95E1F7FC0194
:10054000818D928D9A8F898FDF91CF9108959F929F
:10055000AF92BF92CF92DF92EF92FF920F931F93D1
:10056000CF93DF9300D000D0CDB7DEB78CEB97E010
:100570000E94FD2A69E472E08CEB97E00E94BB3890
:1005800042E060E08CEB97E00E94042B66E572E0AD
:100590008CEB97E00E94BB3843E060E08CEB97E087
:1005A0000E94042B64E672E08CEB97E00E94BB385B
:1005B000E12CF12C0FEF1FEF2AE0922E3AE0A32E50
:1005C000B12C84ED97E00E94DF2F8823D1F3813492
:1005D00009F040C092E4C92E97E0D92EE12CF12C0D
:1005E0008091BA079091BB07E816F9060CF08DC010
:1005F0004AE0B801CE0101960E94DA3AB601CE0176
:1006000001960E944F3CB82ECE0101960E94C3393C
:1006100026E0C20ED11CBB20C9F0F0920902E09284
:1006200008028CEB97E00E94FD2A61E08DE00E94B9
:10063000DF356EE672E08CEB97E00E94BB3868EE27
:1006400073E080E090E00E94BD345FC03FEFE31AAA
:10065000F30AC6CF843479F4E114F10419F081E08F
:10066000E81AF1080A30110504F1C801B5010E9429
:10067000BF3C8B011CC090ED980F9A30C0F49FEFE7
:10068000E91AF90A0F3F2FEF120711F400E010E00A
:100690009801929E8001939E100D1124992787FD49
:1006A0009095C097080F191F02C00FEF1FEF41E090
:1006B00060E08CEB97E00E94042B84E1C82ED12CE3
:1006C00060E28CEB97E00E94BD3831E0C31AD1089C
:1006D000B9F741E060E08CEB97E00E94042B4AE020
:1006E00050E0B8018CEB97E00E948F39C12CD12CDF
:1006F000CE14DF040CF065CF6AE28CEB97E00E9429
:10070000BD388FEFC81AD80AF3CF26960FB6F894E3
:10071000DEBF0FBECDBFDF91CF911F910F91FF9034
:10072000EF90DF90CF90BF90AF909F9008950F9380
:100730001F93CF93DF938CEB97E00E94FD2A40E05C
:1007400060E08CEB97E00E94042B69E772E08CEB91
:1007500097E00E94BB3842E060E08CEB97E00E949B
:10076000042B66E572E08CEB97E00E94BB3843E017
:1007700060E08CEB97E00E94042B6DE872E08CEB5C
:1007800097E00E94BB3843E06AE08CEB97E00E9460
:10079000042B64E672E08CEB97E00E94BB3841E0EA
:1007A00060E08CEB97E00E94042B60910C06709146
:1007B0000D064AE050E08CEB97E00E948F391AE07A
:1007C00084ED97E00E94DF2F082F8823C9F3C82FFC
:1007D000DD27C7FDD0954AE050E0BE018CEA9BE0E2
:1007E0000E949739013409F469C0023409F468C0E1
:1007F000043469F480910C0690910D066AE070E073
:100800000E94BF3C70930D0660930C062CC00053F1
:100810000A3048F520910C0630910D06129FC00158
:10082000139F900D11249E0120533109820F931FB5
:1008300090930D0680930C0666E972E08CEA9BE0CB
:100840000E94DA384AE050E0BE018CEA9BE00E9448
:10085000973960910C0670910D064AE050E08CEAE1
:100860009BE00E94973941E060E08CEB97E00E94AA
:10087000042BC4E1D0E06BEC73E08CEB97E00E94BA
:10088000BB382197C1F741E060E08CEB97E00E9414
:10089000042B60910C0670910D064AE050E08CEB41
:1008A00097E00E948F3960910C0670910D064AE026
:1008B00050E08CEA9BE00E94973982CF81E001C032
:1008C00080E0DF91CF911F910F910895EF92FF92F9
:1008D0000F931F93CF93DF93CDB7DEB7C254D109E7
:1008E0000FB6F894DEBF0FBECDBFCE014C960E946E
:1008F000341623E14DE952E06BE478E0CE01019635
:100900000E941019BE016F5F7F4FCE014C960E946E
:100910005102CE0101960E944716CE014C960E94CC
:10092000BB16811106C06BE574E08CEA9BE00E9467
:10093000DA38CE0101960E948A2C0F8110E00E5405
:10094000184FFE80ED8068EA72E0CE01CD960E94DD
:10095000313ABE01635C7F4FCE01C7960E94943A44
:100960006E2DCE01C7960E94F53B65EA72E00E94AB
:10097000DB3B6F2D0E94F53B65EA72E00E94DB3B9A
:10098000B8010E94033C67EA72E00E94DB3BBC01B5
:10099000CE014C960E94AD38CE01C7960E94C33955
:1009A000CE01CD960E94C3391A810B8168EA72E0AC
:1009B000CE01CD960E94313ABE01635C7F4FCE01DD
:1009C000C7960E94943A602FCE01C7960E94F53BCD
:1009D0006FE075E00E94DB3B612F0E94F53B67EA08
:1009E00072E00E94DB3BBC01CE014C960E94AD3808
:1009F000CE01C7960E94C339CE01CD960E94C3395D
:100A0000809108029091090216E0189FB001199F89
:100A1000700D11246653794FCE01C7960E94943A07
:100A200067EA72E0CE01C7960E94DB3BBC01CE01B3
:100A30004C960E94AD38CE01C7960E94C339809172
:100A4000060290910702189FB001199F700D1124A2
:100A5000685D794FCE01C7960E94943A67EA72E0CA
:100A6000CE01C7960E94DB3BBC01CE014C960E9492
:100A7000AD38CE01C7960E94C33960910C067091C3
:100A80000D064AE050E0CE014C960E949739CE0107
:100A90004C960E94A91669EA72E08CEA9BE00E94DB
:100AA000DA38CE014C960E944716CE5BDF4F0FB668
:100AB000F894DEBF0FBECDBFDF91CF911F910F9194
:100AC000FF90EF900895EF92FF920F931F93CF93B3
:100AD000DF93CDB7DEB7C954D1090FB6F894DEBFA6
:100AE0000FBECDBF60EC72E08BE498E00E949619D7
:100AF000811106C060EC72E08BE498E00E94A119BD
:100B0000CE01C7960E948A2C68EA72E0CE018C5B07
:100B10009F4F0E94313A809106029091070226E091
:100B2000289F8001299F100D1124085D194FF8019D
:100B300084819581089748F128E030E040E050E05A
:100B4000B801CE014C960E94623C68EC72E0CE0186
:100B500001960E94313ABE01645E7F4FCE0101963C
:100B60000E94C83B60EA72E00E94DB3BBC01CE0100
:100B70008C5B9F4F0E947D3ACE0101960E94C33943
:100B8000CE014C960E94C33919C068EC72E0CE01C8
:100B900001960E94313AB801CE0101960E94C83BED
:100BA00060EA72E00E94DB3BBC01CE018C5B9F4F90
:100BB0000E947D3ACE0101960E94C33961ED72E038
:100BC000CE0101960E94313ABE016C5B7F4FCE018F
:100BD00001960E94C83B61ED72E00E94DB3BBC01C4
:100BE0008CEA9BE00E94C838CE0101960E94C3396E
:100BF000CE014C960E943416CE014C960E94A91646
:100C000026964EAD5FAD269723E16BE478E0CE01EA
:100C100001960E941019BE016F5F7F4FCE014C9666
:100C20000E945102CE0101960E944716CE014C96B9
:100C30000E94BB16811106C063ED72E08CEA9BE056
:100C40000E94DA380DAD10E00E54184FFCACEBAC3E
:100C500068EA72E0CE01CE960E94313ABE01625C33
:100C60007F4FCE0101960E94943A6E2DCE010196DF
:100C70000E94F53B65EA72E00E94DB3B6F2D0E940B
:100C8000F53B65EA72E00E94DB3BB8010E94033C41
:100C900067EA72E00E94DB3BBC01CE014C960E94E9
:100CA000AD38CE0101960E94C339CE01CE960E9486
:100CB000C33918AD09AD68EA72E0CE01CE960E9444
:100CC000313ABE01625C7F4FCE0101960E94943A98
:100CD000602FCE0101960E94F53B6FE075E00E9407
:100CE000DB3B612F0E94F53B67EA72E00E94DB3B31
:100CF000BC01CE014C960E94AD38CE0101960E94F7
:100D0000C339CE01CE960E94C339809108029091DA
:100D1000090216E0189FB001199F700D1124665347
:100D2000794FCE0101960E94943A67EA72E0CE01B3
:100D300001960E94DB3BBC01CE014C960E94AD386F
:100D4000CE0101960E94C33980910602909107025C
:100D5000189FB001199F700D1124685D794FCE0165
:100D600001960E94943A67EA72E0CE0101960E94D1
:100D7000DB3BBC01CE014C960E94AD38CE01019602
:100D80000E94C33960910C0670910D064AE050E054
:100D9000CE014C960E949739CE014C960E94A9161E
:100DA00068EE72E08CEA9BE00E94DA38CE014C9645
:100DB0000E944716CE018C5B9F4F0E94C339C75BD0
:100DC000DF4F0FB6F894DEBF0FBECDBFDF91CF91DE
:100DD0001F910F91FF90EF900895EF92FF920F9364
:100DE0001F93CF93DF93CDB7DEB7C854D1090FB6A9
:100DF000F894DEBF0FBECDBF6FEF72E08BE498E0DA
:100E00000E949619811106C06FEF72E08BE498E0A2
:100E10000E94A11968EA72E0CE018D5B9F4F0E948B
:100E2000313A809106029091070246E0489FF00116
:100E3000499FF00D1124E85DF94F2481358180919F
:100E40000802909109022830310578F1489FB001DD
:100E5000499F700D11246653794F28E030E040E03F
:100E600050E0CE014C960E94623C65E073E0CE01FA
:100E700001960E94313ABE01645E7F4FCE01019619
:100E80000E94C83B60EA72E00E94DB3BBC01CE01DD
:100E90008D5B9F4F0E947D3ACE0101960E94C3391F
:100EA000CE014C960E94C33920C0489F8001499FC3
:100EB000100D11240653194F65E073E0CE01019621
:100EC0000E94313AB801CE0101960E94C83B60EA07
:100ED00072E00E94DB3BBC01CE018D5B9F4F0E9404
:100EE0007D3ACE0101960E94C339CE014C960E94F4
:100EF0003416CE014C960E94A91625964EAD5FADD4
:100F0000259723E16BE478E0CE0101960E94101949
:100F1000BE016F5F7F4FCE014C960E945102CE0101
:100F200001960E944716CE014C960E94BB1688235C
:100F300009F4D5C0CE0101960E948A2C60E474E0C9
:100F40008CEA9BE00E94DA38BE016D5B7F4FCE01D8
:100F5000C7960E94943A61ED72E0CE01C7960E9456
:100F6000DB3BBC018CEA9BE00E94C838CE01C796EF
:100F70000E94C3396CE073E08CEA9BE00E94DA388F
:100F80000F8110E00E54184FFE80ED8068EA72E089
:100F9000CE01CD960E94313ABE01635C7F4FCE01F7
:100FA000C7960E94943A6E2DCE01C7960E94F53BDB
:100FB00065EA72E00E94DB3B6F2D0E94F53B65EA1B
:100FC00072E00E94DB3BB8010E94033C67EA72E0DA
:100FD0000E94DB3BBC01CE014C960E94AD38CE0195
:100FE000C7960E94C339CE01CD960E94C3391A819B
:100FF0000B8168EA72E0CE01CD960E94313ABE01C3
:10100000635C7F4FCE01C7960E94943A602FCE0159
:10101000C7960E94F53B6FE075E00E94DB3B612FB5
:101020000E94F53B67EA72E00E94DB3BBC01CE0107
:101030004C960E94AD38CE01C7960E94C339CE01AE
:10104000CD960E94C339809108029091090216E062
:10105000189FB001199F700D11246653794FCE016E
:10106000C7960E94943A67EA72E0CE01C7960E9442
:10107000DB3BBC01CE014C960E94AD38CE01C79639
:101080000E94C3398091060290910702189FB00117
:10109000199F700D1124685D794FCE01C7960E948B
:1010A000943A67EA72E0CE01C7960E94DB3BBC012E
:1010B000CE014C960E94AD38CE01C7960E94C3392E
:1010C00060910C0670910D064AE050E0CE014C96FE
:1010D0000E949739CE014C960E94A91606C069E37A
:1010E00074E08CEA9BE00E94DA386EE073E08CEAF0
:1010F0009BE00E94DA38CE014C960E944716CE0142
:101100008D5B9F4F0E94C339C85BDF4F0FB6F894C9
:10111000DEBF0FBECDBFDF91CF911F910F91FF902A
:10112000EF9008958CEB97E00E94FD2A40E060E08C
:101130008CEB97E00E94042B62E273E08CEB97E06B
:101140000E94BB3842E060E08CEB97E00E94042BE9
:1011500067E373E08CEB97E00E94BB3843E060E00C
:101160008CEB97E00E94042B6FE373E08CEB97E02D
:101170000E94BB3884ED97E00E94DF2F8823D1F3D3
:10118000813421F08434B1F781E0089580E008953E
:1011900060E08DE00E94DF358CEB97E00E94FD2A35
:1011A00041E062E08CEB97E00E94042B67E473E07F
:1011B0008CEB97E00C94BB38BF92CF92DF92EF920A
:1011C000FF920F931F93CF93DF938C01B62E6A018A
:1011D000462F682F8CEB97E00E94042BE12CF12C1A
:1011E000C4E1D0E0C01BD10BEC16FD0654F46BEC4F
:1011F00073E08CEB97E00E94BB388FEFE81AF80A97
:10120000F3CF4B2D602F8CEB97E00E94042B8601CF
:10121000C8018C199D098C179D0744F4F801619150
:101220008F018CEB97E00E94BD38F2CFDF91CF9118
:101230001F910F91FF90EF90DF90CF90BF90089596
:101240006F927F928F929F92AF92BF92CF92DF92D6
:10125000EF92FF920F931F93CF93DF93FB01EA016D
:10126000790110922406009731F48FE580931506DA
:101270008093140614C08A3091053CF490E3909357
:101280001406805D809315060AC06AE070E00E9433
:10129000BF3C805D80931506605D609314068EE20E
:1012A00080931606309731F48FE58093180680936B
:1012B000170615C0EA30F1053CF480E38093170669
:1012C000E05DE09318060BC0CF016AE070E00E9479
:1012D000BF3C805D80931806605D609317068EE2C8
:1012E00080931906209751F48FE580931D06809313
:1012F0001C0680931B0680931A0646C04EE1A42E5E
:1013000046E0B42E59E0C52ED12C6AE0862E912CF1
:10131000CE01B4010E94BF3C3B01805DF501829388
:101320005F0168E573E08CEA9BE00E94BB384AE00D
:1013300050E0BE018CEA9BE00E948F39E3016DE52D
:1013400073E08CEA9BE00E94BB384AE050E0B601B3
:101350008CEA9BE00E948F396AEC73E08CEA9BE098
:101360000E94BB38F5016081772767FD70954AE0E0
:1013700050E08CEA9BE00E949739F1E0CF1AD10847
:1013800085E0C816D10421F680E280931E06EFEFB7
:10139000EE16FE0631F48FE58093200680931F063B
:1013A00016C0FAE0EF16F1043CF480E380931F06C8
:1013B0008E0D809320060BC0C7016AE070E00E948A
:1013C000BF3C805D80932006605D60931F068AE3CA
:1013D000809321060F3F8FEF180731F48FE580933C
:1013E00023068093220615C00A3011053CF480E3E1
:1013F00080932206005D009323060BC0C8016AE0BB
:1014000070E00E94BF3C805D80932306605D609326
:10141000220680E280932706809326068093250685
:1014200080932406DF91CF911F910F91FF90EF9051
:10143000DF90CF90BF90AF909F908F907F906F90F4
:1014400008952F923F924F925F926F927F928F9268
:101450009F92AF92BF92CF92DF92EF92FF920F9343
:101460001F93CF93DF93CDB7DEB72E970FB6F894C7
:10147000DEBF0FBECDBF8CEB97E00E94FD2ACE01F0
:1014800008960E948A2C81110CC06DE673E08CEBEB
:1014900097E00E94BB3868EE73E080E090E00E9425
:1014A000BD348CEB97E00E94FD2A60E873E08CEB82
:1014B00097E00E94BB3841E062E08CEB97E00E942D
:1014C000042B4AE050E06C858CEB97E00E94BC391D
:1014D00065EA72E08CEB97E00E94BB384AE050E08E
:1014E0006D858CEB97E00E94BC3965EA72E08CEB6D
:1014F00097E00E94BB386E8570E06E54784F4AE0EA
:1015000050E08CEB97E00E948F396AEC73E08CEB33
:1015100097E00E94BB384AE050E06A858CEB97E088
:101520000E94BC396FE075E08CEB97E00E94BB38FD
:101530004AE050E069858CEB97E00E94BC3943E0BB
:1015400060E08CEB97E00E94042B67E373E08CEB88
:1015500097E00E94BB3843E06AE08CEB97E00E9482
:10156000042B62E973E08CEB97E00E94BB3884EDBA
:1015700097E00E94DF2F8823D1F3813409F480C1E2
:101580008234A9F78CEB97E00E94FD2A6AE973E0A8
:101590008CEB97E00E94BB3843E060E08CEB97E077
:1015A0000E94042B68EA73E08CEB97E00E94BB3842
:1015B00043E06AE08CEB97E00E94042B64E672E063
:1015C0008CEB97E00E94BB3841E062E08CEB97E047
:1015D0000E94042B62EB73E08CEB97E00E94BB3817
:1015E0000FEF1FEF2FEF3FEF40E050E060E070E0C3
:1015F00080E090E00E94200944E156E062E070E063
:1016000082E090E00E94DC08CC24CA94DC2CAA245E
:10161000AA94BA2C812C912C412C512C612C712C28
:10162000E12CF12CBAE02B2E312C84ED97E00E94B6
:10163000DF2F8823D1F390ED980F9A3008F065C022
:101640002CE0E216F1040CF0E4C0992787FD909598
:1016500032E0E316F1045CF44AE09301429F30016A
:10166000439F700C1124C097680E791E4AC024E075
:10167000E216F1045CF44AE09201429F2001439F8C
:10168000500C1124C097480E591E3BC028E0E216AA
:10169000F10494F44AE09401429F4001439F900C6E
:1016A0001124C097880E991E4AE050E0B4018CEADC
:1016B0009BE00E94973925C02AE0E216F1048CF4E1
:1016C0003FEFA316B30611F4A12CB12C4AE095010B
:1016D000429F5001439FB00C1124C097A80EB91E21
:1016E00010C02FEFC216D20611F4C12CD12C4AE043
:1016F0009601429F6001439FD00C1124C097C80EF1
:10170000D91E8FEFE81AF80A84C0843409F049C062
:10171000E114F10409F48DC091E0E916F10441F4FB
:10172000C301B1010E94BF3C3B01E12CF12C81C0FF
:1017300024E0E216F1044CF4C201B1010E94BF3C66
:101740002B0131E0E31AF10874C048E0E416F1041B
:101750004CF4C401B1010E94BF3C4B0181E0E81A86
:10176000F10867C09AE0E916F1045CF421E0E21A9E
:10177000F108E0FE5BC0C501B1010E94BF3C5B0106
:1017800058C03CE0E316F1040CF043C041E0E41A19
:10179000F108E0FE71C0C601B1010E94BF3C6B01BF
:1017A00048C08134B9F48CE0E816F10409F041C076
:1017B0001982CA82AB826D824E828F821C82CE01D8
:1017C00001960E94332C64EF71E080E090E00E946B
:1017D000BD3456C08234E9F49CE0E916F104CCF43F
:1017E00024E0E216F1042CF4E894E0F8C701029634
:1017F00008C098E0E916F10434F42CEFE222C701A6
:1018000004967C0116C0E894E0F897012E5F3F4FE4
:1018100079013CE0E316F10461F443E060E08CEB15
:1018200097E00E94042B63EC73E00BC0AA24AA94F7
:10183000BA2C43E060E08CEB97E00E94042B68EA4E
:1018400073E08CEB97E00E94BB3886019501A40100
:10185000B201C3010E94200944E156E062E070E059
:1018600082E090E00E94DC084AE050E0B7018CEA98
:101870009BE00E949739D9CECC24CA94DC2CD9CFD6
:101880002E960FB6F894DEBF0FBECDBFDF91CF917D
:101890001F910F91FF90EF90DF90CF90BF90AF908E
:1018A0009F908F907F906F905F904F903F902F9080
:1018B0000895CF93DF9341E060E08CEB97E00E94C6
:1018C000042BCAE0D0E060E28CEB97E00E94BD38C8
:1018D0002197C9F742E060E08CEB97E00E94042B6F
:1018E000CAE0D0E060E28CEB97E00E94BD3821971F
:1018F000C9F743E060E08CEB97E00E94042BCAE05C
:10190000D0E060E28CEB97E00E94BD382197C9F7E8
:1019100020910602309107022115310509F04EC0D1
:1019200041E060E08CEB97E00E94042B6091A00600
:101930007091A1064AE050E08CEB97E00E948F394D
:101940006BE28CEB97E00E94BD3868E276E08CEBAE
:1019500097E00E94AD3842E060E08CEB97E00E9497
:10196000042B6091A2067091A3064AE050E08CEB34
:1019700097E00E948F3960E28CEB97E00E94BD38BF
:101980006EE276E08CEB97E00E94AD3843E060E0D9
:101990008CEB97E00E94042B6091A4067091A50641
:1019A0004AE050E08CEB97E00E948F3960E28CEBCC
:1019B00097E00E94BD3864E376E006C18091C806D6
:1019C0009091C90601972817390709F078C041E0BE
:1019D00060E08CEB97E00E94042BE091C806F09148
:1019E000C906EE0FFF1FE656F94F608171814AE08C
:1019F00050E08CEB97E00E948F3960E28CEB97E02F
:101A00000E94BD388091C8069091C9060397C6E030
:101A1000C89FB001C99F700D1124685D794F8CEB90
:101A200097E00E94AD3842E060E08CEB97E00E94C6
:101A3000042BE091C806F091C906EE0FFF1FE45693
:101A4000F94F608171814AE050E08CEB97E00E9491
:101A50008F3960E28CEB97E00E94BD388091C80618
:101A60009091C9060297C89FB001C99F700D1124BB
:101A7000685D794F8CEB97E00E94AD3843E060E001
:101A80008CEB97E00E94042BE091C806F091C90608
:101A9000EE0FFF1FE256F94F608171814AE050E07E
:101AA0008CEB97E00E948F396BE28CEB97E00E9401
:101AB000BD388091C8069091C90601977EC0121664
:101AC00013060CF087C0281739070CF083C041E0DB
:101AD00060E08CEB97E00E94042BE0910602F0910D
:101AE0000702EE0FFF1FE256F94F608171814AE055
:101AF00050E08CEB97E00E948F3960E28CEB97E02E
:101B00000E94BD3880910602909107020197C6E0BD
:101B1000C89FB001C99F700D1124685D794F8CEB8F
:101B200097E00E94AD3842E060E08CEB97E00E94C5
:101B3000042BE0910602F0910702EE0FFF1FE05622
:101B4000F94F608171814AE050E08CEB97E00E9490
:101B50008F396BE28CEB97E00E94BD3880910602D2
:101B600090910702C89FB001C99F700D1124685D54
:101B7000794F8CEB97E00E94AD3843E060E08CEB4E
:101B800097E00E94042BE0910602F0910702EE0F0D
:101B9000FF1FEE55F94F608171814AE050E08CEBF8
:101BA00097E00E948F3960E28CEB97E00E94BD388D
:101BB00080910602909107020196C89FB001C99FCB
:101BC000700D1124685D794F8CEB97E0DF91CF9118
:101BD0000C94AD38DF91CF9108950F931F93CF935D
:101BE000DF93CDB7DEB727970FB6F894DEBF0FBEF1
:101BF000CDBF8C0168EA72E0CE0101960E94313AB5
:101C0000BE016F5F7F4F8EE096E00E949D3ACE014D
:101C100001960E94C339C8010E94C615282F682F5B
:101C2000CE0101962F830E94C13ABE016F5F7F4FA4
:101C30008EE096E00E94323BCE0101960E94C339AD
:101C40002F81203229F02F3F19F02950223018F728
:101C500020911206309113062150310940E050E0E6
:101C60006EE076E0CE0101960E94623CBE016F5F9D
:101C70007F4F8EE096E00E949D3ACE0101960E9431
:101C8000C33927960FB6F894DEBF0FBECDBFDF91E4
:101C9000CF911F910F9108951F93CF93DF93CDB7ED
:101CA000DEB7E6970FB6F894DEBF0FBECDBFCE010C
:101CB0004C960E9434161092BB071092BA076DEC36
:101CC00073E08BE498E00E94A119811106C065EDD4
:101CD00073E08CEA9BE00E94DA386DEC73E08BE4F1
:101CE00098E00E949619811106C061EE73E08CEABB
:101CF0009BE00E94DA3865EF73E08BE498E00E9485
:101D00009619811106C060E074E08CEA9BE00E94A5
:101D1000DA3821E045EF53E06BE478E0CE0101963C
:101D20000E941019BE016F5F7F4FCE014C960E943A
:101D30005102CE0101960E944716CE014C960E9498
:101D4000BB16811106C067E174E08CEA9BE00E943B
:101D5000DA3816E0CE014C960E947A16892B09F4E7
:101D60004FC0BE01645E7F4FCE0101960E947A0291
:101D7000CE0101960E94ED0DCE0101960E944716FC
:101D80006EE076E08CEA9BE00E94C8382091BA07AA
:101D90003091BB07129FC001139F900D11246EE07C
:101DA00076E08653994F0E947D3ABE01645E7F4F74
:101DB000CE0101960E947A02CE0101960E94ED0D9D
:101DC000CE0101960E9447166EE076E08CEA9BE019
:101DD0000E94C8382091BA073091BB07C90101960B
:101DE0009093BB078093BA07129FC001139F900D79
:101DF00011246EE076E08E5B984F0E947D3AAACF68
:101E0000CE014C960E94A916CE014C960E94471610
:101E1000E6960FB6F894DEBF0FBECDBFDF91CF912F
:101E20001F910895CF92DF92EF92FF921F93CF936D
:101E3000DF93CDB7DEB7E6970FB6F894DEBF0FBEDF
:101E4000CDBFCE014C960E9434161092C906109256
:101E5000C80621E046E254E06BE478E0CE0101964A
:101E60000E941019BE016F5F7F4FCE014C960E94F9
:101E70005102CE0101960E944716CE014C960E9457
:101E8000BB16811106C061E374E08CEA9BE00E94FE
:101E9000DA3816E0CE014C960E947A16892B09F4A6
:101EA0006CC0BE01645E7F4FCE0101960E947A0233
:101EB000CE0101960E94ED0DCE0101960E944716BB
:101EC0008EE096E00E94A73C6B017C016EE076E01C
:101ED000CE0101960E94943A6FE374E0CE01019620
:101EE0000E94DB3BB701A6010E94113C60E474E054
:101EF0000E94DB3BBC018CEA9BE00E94C838CE010B
:101F000001960E94C339E090C806F090C9068EE0A1
:101F100096E00E94A73CF701EE0FFF1FE056F94F35
:101F200071836083BE01645E7F4FCE0101960E9483
:101F30007A02CE0101960E94ED0DCE0101960E941B
:101F400047166EE076E08CEA9BE00E94C83820914C
:101F5000C8063091C906C90101969093C9068093BD
:101F6000C806129FC001139F900D11246EE076E009
:101F7000885D994F0E947D3A8DCFCE014C960E948C
:101F8000A916CE014C960E944716E6960FB6F89415
:101F9000DEBF0FBECDBFDF91CF911F91FF90EF90BD
:101FA000DF90CF900895CF93DF93CDB7DEB7E6975C
:101FB0000FB6F894DEBF0FBECDBFCE014C960E9487
:101FC000341621E042E454E06BE478E0CE0101965F
:101FD0000E941019BE016F5F7F4FCE014C960E9488
:101FE0005102CE0101960E944716CE014C960E94E6
:101FF000BB16811107C06AE474E08CEA9BE00E9482
:10200000DA3836C0CE014C960E946A16AB01BC018C
:10201000CE014C960E944D16CE014C960E94D015D2
:10202000809759F0CE014C960E945A16AB01BC0124
:102030004150510961097109EBCFBE01645E7F4FC8
:10204000CE0101960E947A02CE0101960E94ED0D0A
:10205000CE0101960E9447168EE096E00E94A73CB2
:1020600070930B0660930A06CE014C960E94A91647
:10207000CE014C960E944716E6960FB6F894DEBF46
:102080000FBECDBFDF91CF910895CF93DF93CDB732
:10209000DEB7E6970FB6F894DEBF0FBECDBFCE0118
:1020A0004C960E94341621E049E654E06BE478E057
:1020B000CE0101960E941019BE016F5F7F4FCE01C5
:1020C0004C960E945102CE0101960E944716CE0105
:1020D0004C960E94BB16811107C066E774E08CEA3B
:1020E0009BE00E94DA3836C0CE014C960E946A16F8
:1020F000AB01BC01CE014C960E944D16CE014C9610
:102100000E94D015809759F0CE014C960E945A1625
:10211000AB01BC014150510961097109EBCFBE010E
:10212000645E7F4FCE0101960E947A02CE01019635
:102130000E94ED0DCE0101960E9447168EE096E0BA
:102140000E94A73C7093090660930806CE014C9646
:102150000E94A916CE014C960E944716E6960FB62D
:10216000F894DEBF0FBECDBFDF91CF9108958CEB09
:1021700097E00E94FD2A40E060E08CEB97E00E942F
:10218000042B6AE974E08CEB97E00E94BB3842E0D4
:1021900060E08CEB97E00E94042B63EA74E08CEB28
:1021A00097E00E94BB3843E060E08CEB97E00E9430
:1021B000042B62EB74E08CEB97E00E94BB3884ED5B
:1021C00097E00E94DF2F8823D1F3813421F08234FD
:1021D000B1F781E0089580E00895EF92FF920F93A8
:1021E0001F93CF93DF93CDB7DEB7C354D1090FB69A
:1021F000F894DEBF0FBECDBF8CEB97E00E94FD2AA6
:1022000040E060E08CEB97E00E94042B69E772E00D
:102210008CEB97E00E94BB3842E060E08CEB97E0EB
:102220000E94042B66E572E08CEB97E00E94BB38BD
:1022300043E06AE08CEB97E00E94042B64E672E0D6
:102240008CEB97E00E94BB3841E060E08CEB97E0BC
:102250000E94042B60910C0670910D064AE050E03C
:102260008CEB97E00E948F395AE0F52E84ED97E0D1
:102270000E94DF2F282F8823C9F3082F112707FD7D
:1022800010954AE050E0B8018CEA9BE024962FAF0D
:1022900024970E94973924962FAD2497213409F46E
:1022A00067C0243469F480910C0690910D066AE0B1
:1022B00070E00E94BF3C70930D0660930C062CC02A
:1022C00020532A3048F520910C0630910D06F29EDD
:1022D000C001F39E900D1124980120533109820F03
:1022E000931F90930D0680930C0666E972E08CEACA
:1022F0009BE00E94DA384AE050E0B8018CEA9BE0AB
:102300000E94973960910C0670910D064AE050E0EA
:102310008CEA9BE00E94973941E060E08CEB97E00B
:102320000E94042B04E110E06BEC73E08CEB97E06F
:102330000E94BB3801501109B9F741E060E08CEB15
:1023400097E00E94042B60910C0670910D064AE004
:1023500050E08CEB97E00E948F3960910C067091F1
:102360000D064AE050E08CEA9BE00E9497397ECF50
:10237000CE014C960E94341623E14EEB54E06BE400
:1023800078E0CE0101960E941019BE016F5F7F4F69
:10239000CE014C960E945102CE0101960E94471632
:1023A000CE014C960E94BB16811107C06AEC74E006
:1023B0008CEA9BE00E94DA38B7C0CE0101960E94F9
:1023C0008A2C0F8110E00E54184FFE80ED8068EAD1
:1023D00072E0CE01CD960E94313ABE01635C7F4F20
:1023E000CE01C7960E94943A6E2DCE01C7960E94E8
:1023F000F53B65EA72E00E94DB3B6F2D0E94F53BE6
:1024000065EA72E00E94DB3BB8010E94033C67EA88
:1024100072E00E94DB3BBC01CE014C960E94AD38BD
:10242000CE01C7960E94C339CE01CD960E94C33912
:102430001A810B8168EA72E0CE01CD960E94313A92
:10244000BE01635C7F4FCE01C7960E94943A602F15
:10245000CE01C7960E94F53B6FE075E00E94DB3B22
:10246000612F0E94F53B67EA72E00E94DB3BBC01F2
:10247000CE014C960E94AD38CE01C7960E94C3395A
:10248000CE01CD960E94C33960910C0670910D0665
:102490004AE0CE01CD960E94DA3ABE01635C7F4FDE
:1024A000CE01C7960E94943A67EA72E0CE01C796C1
:1024B0000E94DB3BBC01CE014C960E94AD38CE01A0
:1024C000C7960E94C339CE01CD960E94C339609150
:1024D00008067091090680910C0690910D06680F10
:1024E000791F4AE0CE01CD960E94DA3ABE01635CC4
:1024F0007F4FCE01C7960E94943A61E975E0CE0104
:10250000C7960E94DB3BBC01CE014C960E94AD38C1
:10251000CE01C7960E94C339CE01CD960E94C33921
:10252000CE014C960E94A9168CEB97E00E94FD2AE2
:1025300066EE74E08CEB97E00E94BB3841E060E00F
:102540008CEB97E00E94042B67EF74E08CEB97E034
:102550000E94BB38609108067091090680910C06B4
:1025600090910D06680F791F4AE0CE0101960E94F6
:10257000DA3ABE016F5F7F4F8CEB97E00E94AD3877
:10258000CE0101960E94C33968E873E180E090E0D3
:102590000E94BD34CE014C960E944716CD5BDF4FA2
:1025A0000FB6F894DEBF0FBECDBFDF91CF911F9164
:1025B0000F91FF90EF900895CF93DF93CDB7DEB7E3
:1025C00062970FB6F894DEBF0FBECDBF8CEB97E0DD
:1025D0000E94FD2A62E075E08CEB97E00E94BB3818
:1025E00041E060E08CEB97E00E94042B60910A06CA
:1025F00070910B064AE0CE0101960E94DA3ABE01C4
:102600006F5F7F4F8CEB97E00E94AD38CE01019653
:102610000E94C33942E060E08CEB97E00E94042BFB
:1026200061E175E08CEB97E00E94BB3843E060E02D
:102630008CEB97E00E94042B6091080670910906CC
:1026400080910A0690910B06681B790B4AE0CE0137
:1026500001960E94DA3A60910806709109064AE0F4
:10266000CE010D960E94DA3ABE01635F7F4FCE0124
:1026700007960E94943A6BE175E0CE0107960E949E
:10268000DB3BBE016F5F7F4F0E94C83B6EE175E090
:102690000E94DB3BBC018CEB97E00E94AD38CE0181
:1026A00007960E94C339CE010D960E94C339CE0110
:1026B00001960E94C33962960FB6F894DEBF0FBE32
:1026C000CDBFDF91CF910895CF92EF920F93CF932B
:1026D000DF9364E0E62E04E02AE132E04EE152E0CE
:1026E00062E272E084ED97E00E94FE2C70E2C72E59
:1026F000E2E2EE2E04E226E240E36EE28CEB97E0AB
:102700000E94BC2BC2E4D7E068EA72E0CE010E94CE
:10271000313A269687E0CA3BD807B1F7CAECD6E033
:1027200068EA72E0CE010E94313A269687E0C23410
:10273000D807B1F7C8E2D6E068EA72E0CE010E949D
:10274000313A269686E0C03AD807B1F768EA72E0D7
:102750008EE096E0DF91CF910F91EF90CF900C94A7
:10276000313ACF93DF938EE096E00E94C339C0EAFE
:10277000D6E02697CE010E94C33986E0C832D8073A
:10278000C1F7C2E4D7E02697CE010E94C33986E0A4
:10279000CA3CD807C1F7CAEBD7E02697CE010E9402
:1027A000C33987E0C234D807C1F7DF91CF910895CC
:1027B000CF92DF92FF920F931F93CF93DF931F92DD
:1027C000CDB7DEB78CEB97E00E94FD2A60E275E0A2
:1027D0008CEB97E00E94BB3840E06BE08CEB97E01D
:1027E0000E94042B65E275E08CEB97E00E94BB38F9
:1027F00041E06BE08CEB97E00E94042B6CE275E00B
:102800008CEB97E00E94BB3860E08CEB97E00E9475
:10281000172C42E06BE08CEB97E00E94042B61E305
:1028200075E08CEB97E00E94BB3861E08CEB97E0A1
:102830000E94172C43E06BE08CEB97E00E94042B86
:1028400064E672E08CEB97E00E94BB3840E064E005
:102850008CEB97E00E94042B4AE050E060E070E0CF
:102860008CEB97E00E948F391092070210920602BB
:102870000E94590CC12CD12CFAE0FF2E84ED97E078
:102880000E94DF2F282F8823C9F3082F112707FD67
:1028900010954AE050E0B8018CEA9BE029830E9441
:1028A00097392981213409F480C0223481F4809140
:1028B000060290910702009709F451C00197909386
:1028C00007028093060281E0C81AD10848C0233469
:1028D000B1F420910602309107028091C8069091D0
:1028E000C906019728173907D1F12F5F3F4F309361
:1028F0000702209306029FEFC91AD90A30C0243478
:10290000B9F4EFEFCE16DE0651F12AE030E0C60151
:10291000B9010E94BF3C6B018091060290910702B1
:10292000B9010E94BF3C709307026093060217C072
:1029300020532A30A0F4FFEFCF16DF0611F4C12C8C
:10294000D12CC601F89E6001F99ED00C11240053D1
:102950001109C00ED11ED0920702C09206020E9439
:10296000590C40E064E08CEB97E00E94042B06E0F9
:1029700010E06BEC73E08CEB97E00E94BB380150E9
:102980001109B9F79FEFC916D90609F477CF40E0CE
:1029900064E08CEB97E00E94042B4AE050E0B60123
:1029A0008CEB97E00E948F3969CF0F90DF91CF9128
:1029B0001F910F91FF90DF90CF9008950F9340EDFE
:1029C00057E060E070E08CEA9AE00E94693020E80D
:1029D00035E240E050E06CEA7BE08CEA9AE00E944D
:1029E0007C308CEA9AE00E94663066E375E0809164
:1029F000DD0A9091DE0A0E94BB386AE070E080E058
:102A000090E00E94BD3441E060E08CEA9AE00E94D0
:102A1000E73026E040E855E260E070E08CEA9BE0B9
:102A20000E94503742E152E060E08CEB97E00E9458
:102A3000DC2B4AE052E061E08CEB97E00E94DC2B5B
:102A400020E044E064E18CEB97E00E941E2B61E003
:102A50008AE00E94A63561E08DE00E94A63560E024
:102A60008DE00E94DF350DE02CE04BE06AE08BE466
:102A700098E00E94F217811106C068E475E08CEAC4
:102A80009BE00E94DA380E944C0E809108029091DF
:102A90000902019619F40E94A702F7CF0E94D30FF2
:102AA0000E9445100E94210A0E94B710882319F045
:102AB0000E94ED1018C00E94DC120E94120F1092AA
:102AC0000D0610920C060E94D8130E9497038823CB
:102AD000B1F30E9466040E9463050E94ED060E9405
:102AE00092088111ECCF0F910C94C808CF93DF931B
:102AF0001F92CDB7DEB76983DC01ED91FC910280B6
:102B0000F381E02D41E050E0BE016F5F7F4F1995EA
:102B10000F90DF91CF910895CF93DF93EC01898DD2
:102B20009A8D009759F0FC01138212820E940D24A5
:102B3000E98DFA8D22813381232B31F081E090E001
:102B40009B838A8380E090E0DF91CF910895FC0120
:102B5000818D928D009711F00C94CD200895CF9324
:102B6000DF931F92CDB7DEB741E050E0BE016F5F4B
:102B70007F4F0E94DE1E019719F4898190E002C008
:102B80008FEF9FEF0F90DF91CF910895FC01818D22
:102B9000928D009711F00C94AF158FEF9FEF089571
:102BA0000F931F93CF93DF938C01FC01818D928D46
:102BB0000097B9F00E94AF15EC018F3FFFEF9F0720
:102BC00099F0F801818D928DFC01428553856485D1
:102BD000758541505109610971090E943120CE016A
:102BE00005C080E090E002C08FEF9FEFDF91CF91B2
:102BF0001F910F910895CF92DF92EF92FF920F9362
:102C00001F93CF93DF93EC017B016A011B821A8231
:102C100008EE13E020E030E00C831D832E833F8319
:102C20008DE595E0998388838DE190E00E942D3DAC
:102C30009A8F898F009779F02DE1F701DC010190DF
:102C40000D922A95E1F74CE050E0B601CE010C96CA
:102C50000E94953F188EDF91CF911F910F91FF90A9
:102C6000EF90DF90CF900895FC011382128248EE1E
:102C700053E060E070E044835583668377838DE59D
:102C800095E091838083128E118E148608952DE530
:102C900035E0FC01318320830895FC01818D928D04
:102CA000009729F00E94312091E0811101C090E04D
:102CB000892F0895DC015996ED91FC915A97309730
:102CC00029F0628573858485958508956FEF7FEF80
:102CD000CB010895DC015996ED91FC915A973097FC
:102CE00029F06389748985899689089560E070E088
:102CF000CB010895CF92DF92EF92FF92CF93DF93B3
:102D0000EC01898D9A8D892BD9F0CE010E946A162B
:102D10006B017C01CE010E945A16A7019601261B69
:102D2000370B480B590BDA01C901811530E89307BD
:102D3000A105B10538F08FEF9FE7A0E0B0E002C039
:102D400080E090E0DF91CF91FF90EF90DF90CF9007
:102D50000895CF93DF93EC01898D9A8D009741F010
:102D60000E941421898D9A8D0E94C53D1A8E198E5C
:102D7000DF91CF910895DC015996ED91FC915A971E
:102D8000309721F081E09581911101C080E0089594
:102D90001F93CF93DF93CDB7DEB76D970FB6F8943F
:102DA000DEBF0FBECDBFAB011C821B822DE635E01E
:102DB0003A8329831E8221E0BC01CE0101960E9444
:102DC000482211E0811102C010E004C0CE0101963A
:102DD0000E941421812F6D960FB6F894DEBF0FBEAE
:102DE000CDBFDF91CF911F910895EF92FF920F9386
:102DF0001F93CF93DF93CDB7DEB76D970FB6F894DF
:102E0000DEBF0FBECDBF8C017B011C821B828DE615
:102E100095E09A8389831E82C8010E94C816982F64
:102E200081110AC0A701B801CE0101960E942D238D
:102E300091E0811101C090E0892F6D960FB6F89452
:102E4000DEBF0FBECDBFDF91CF911F910F91FF90DD
:102E5000EF900895CF93DF93FB0120813181FC0136
:102E6000E20FF31FE081EF3211F42F5F3F4FDA01E1
:102E7000E0E0F0E0EC01C20FD31FC881CF3249F08F
:102E8000CC2339F031962F5F3F4FCD93EC30F105D5
:102E900089F7E40FF51F1082FC01E20FF31F408158
:102EA0004F3211F42F5F3F4FFB0131832083FC0130
:102EB000E20FF31F81E09081911101C080E0DF916A
:102EC000CF9108954F925F926F927F928F929F92CF
:102ED000AF92BF92CF92DF92EF92FF920F931F9328
:102EE000CF93DF93CDB7DEB7C954D1090FB6F894AD
:102EF000DEBF0FBECDBF5C016B013A01490119A2D3
:102F000018A28DE695E09F8F8E8F1BA21C821B82DC
:102F10009A8389831E822A961FAE1EAE2A978B0142
:102F20007E018EE1E80EF11C44244394AE01455C21
:102F30005F4FBE01685B7F4FC5010E942A17582E64
:102F4000482F44259401BE01655C7F4FC801F30101
:102F50001995811108C00C151D0519F0C8010E94B2
:102F6000142180E027C05520B9F021E0AE01455C76
:102F70005F4FB801C7010E944822582E0C151D054D
:102F800099F0C8010E941421552059F3902F812FE8
:102F90008701E92EF82ECACF0C151D0519F0C801BE
:102FA0000E94142181E006C08823D9F28E010F5FB0
:102FB0001F4FECCFC75BDF4F0FB6F894DEBF0FBEDD
:102FC000CDBFDF91CF911F910F91FF90EF90DF90D8
:102FD000CF90BF90AF909F908F907F906F905F90B9
:102FE0004F900895EF920F931F93CF93DF93EC01CF
:102FF000E02E022F242F462F61E00E940F1B81112B
:1030000002C080E01DC08E01035F1F4F41E0BE0182
:10301000C8010E945429882359F0B801CE018B962B
:103020000E948E1E91E0811101C090E0892F08C09E
:1030300040E0BE01C8010E945429882311F3EDCF5E
:10304000DF91CF911F910F91EF900895FC01DB016B
:1030500012968D919C911397938382838DE695E0D0
:103060009183808314968C911497848315968C9108
:103070001597858316964D915D916D917C91199769
:1030800046835783608771871A964D915D916D9144
:103090007C911D9742875387648775871E964D9153
:1030A0005D916D917C91519746875787608B718BAD
:1030B00052968C915297828B53964D915D916D9162
:1030C0007C915697438B548B658B768B57964D919D
:1030D0005D916D917C915A97478B508F618F728F64
:1030E0005B968D919C915C97948F838F08954F92FE
:1030F0005F926F927F928F929F92AF92BF92CF9288
:10310000DF92EF92FF920F931F93CF93DF93CDB790
:10311000DEB7C754D1090FB6F894DEBF0FBECDBFDE
:103120006C014A013901655D7F4F5E018EE1A80E99
:10313000B11CC5010E9426181C821B828DE695E0F9
:103140009A8389831E828401FE0131967F015A2C65
:103150004B2C6FE270E0C8010E947A3F0097E9F1C2
:10316000F80120812F3219F40F5F1F4FF2CF801B1F
:103170008D3008F08CE0A82EB12CA501B801CE014D
:10318000CB960E94953FEBE3F0E0EC0FFD1FEA0DBC
:10319000FB1D1082C7010E94142121E0AE01455C95
:1031A0005F4F652D742DC7010E944822811109C00F
:1031B000F601138212828DE695E091838083158259
:1031C00016C00A0D1B1D852D942D0E941421C201CD
:1031D0005E2C4F2CE92EF82EBCCF08191909F301EB
:1031E00011830083652D742DC6010E942618C60127
:1031F000C95BDF4F0FB6F894DEBF0FBECDBFDF91C6
:10320000CF911F910F91FF90EF90DF90CF90BF90E3
:10321000AF909F908F907F906F905F904F900895A8
:10322000BF92CF92DF92EF92FF920F931F93CF93B3
:10323000DF93CDB7DEB7C955D1090FB6F894DEBF1D
:103240000FBECDBF7C016A01B22E9E01285A3F4FAE
:10325000CE01CB960E9477186A960EAD1FAD6A9785
:103260000C0D1D1DF801808181110AC0BE01655C35
:103270007F4FCE0101960E9426184AE053E03EC0DF
:1032800019A218A28DE695E09F8F8E8F1BA2219622
:103290008FAD2197811104C0C7010E94341634C03C
:1032A00082502B2DA801823048F466E778E0CE01E9
:1032B0004E960E94482281110EC0EECFBE01655C81
:1032C0007F4FCE014E960E944822882329F3CE01DB
:1032D000CB960E9414218B2D867041F049A95AA9E2
:1032E0006BA97CA9CE014E960E943120BE01625E80
:1032F0007F4FCE0101960E942618A801BE016F5F84
:103300007F4FC7010E94FB15C701C75ADF4F0FB699
:10331000F894DEBF0FBECDBFDF91CF911F910F910B
:10332000FF90EF90DF90CF90BF900895FB01BC011C
:10333000655D7F4F20E030E048EC56E1CF010C9412
:103340006217FB01BC01655D7F4F20E030E045EF77
:1033500056E1CF010C946217109250081092510858
:10336000109254081092560882E090E0A0E0B0E07D
:103370008093580890935908A0935A08B0935B081B
:1033800010926F0810927908109278088DE695E0F7
:10339000909377088093760810927B080895909117
:1033A0009E089F3F39F48EBD00000DB407FEFDCF8F
:1033B0008EB50895F894E0919A08F0919B08409199
:1033C0009608342F3095A0919C08B0919D0850919B
:1033D0009708652F609598E02081232320832C9106
:1033E00087FF02C0252B01C026232C932081242B8C
:1033F0002083880F915081F700000000000000003A
:103400008081832380837894089580919E088F3FE4
:1034100039F48EBD00000DB407FEFDCF8EB50895C2
:10342000F894E0919C08F0919D0880819091970814
:10343000892B8083E0919A08F0919B08309196083F
:10344000A0919808B091990850919508432F409504
:1034500098E080E02081232B2083880F2C91252366
:1034600009F0816020812423208300000000915016
:1034700089F7789408952CB5982F93702C7F922B10
:103480009CBD9DB582FB882780F99E7F982B9DBDB2
:10349000089561E0FC0184810C94DF3560E0FC015B
:1034A00084810C94DF35CF93DF93EC018E818823E8
:1034B00089F08F8198859C012F5F3F4F38872F833C
:1034C0008230924018F40E94051AF3CFCE010E9478
:1034D000491A1E82DF91CF910895673028F026E1C6
:1034E000FC01258380E00895633079F028F4613091
:1034F000A1F0623041F005C0653059F040F066300F
:1035000051F084E00BC085E009C081E007C086E08F
:1035100005C082E003C083E001C080E00E943B1A46
:1035200081E008950F931F93CF93DF93EB010E94E7
:103530008E348B010E94051A8F3F49F00E948E3411
:10354000601B710B6C177D07A8F380E001C081E060
:10355000DF91CF911F910F910895CF92DF92FF924B
:103560000F931F93CF93DF9300D01F92CDB7DEB799
:103570006C01F62E29833A834B835C830E94531A95
:10358000C6010E944E1A6CE271E0C6010E94921AB6
:103590008F2D80640E94CF1908E110E05C814B817F
:1035A0003A812981DA01C901002E04C0B695A79598
:1035B000979587950A94D2F729833A834B835C8346
:1035C0000E94CF190850110929813A814B815C81F1
:1035D000083F8FEF180731F7FF2029F0E8E0FE16CB
:1035E00021F08FEF03C085E901C087E80E94CF1961
:1035F00010E00E94051AF601828787FF04C01F3F72
:1036000011F01F5FF6CF0F900F900F900F90DF918A
:10361000CF911F910F91FF90DF90CF900895AF92BF
:10362000BF92CF92DF92EF92FF920F931F93CF93AF
:10363000DF93EC01B62E1B8619861E821D821C8626
:103640004C832093A00800939F08E0929E080E945C
:103650008E348B0161E08C810E94A635CE010E94E0
:10366000491A8FEFE81609F45EC060E080919F0868
:103670000E94A63561E08091A0080E94A63561E015
:1036800080919E080E94A63580919E08992787FD0B
:103690009095FC01E459FD4FE491F0E0EE0FFF1F1F
:1036A000E453FD4F2591349130939B0820939A0861
:1036B000FC01EA5DFD4F8491809396088091A008FB
:1036C000992787FD9095FC01E459FD4FE491F0E0C6
:1036D000EE0FFF1FE453FD4F2591349130939D0869
:1036E00020939C08FC01EA5DFD4F8491809397082C
:1036F00080919F08992787FD9095FC01E459FD4F23
:10370000E491F0E0EE0FFF1FEE54FD4F2591349150
:103710003093990820939808FC01EA5DFD4F84914D
:103720008093950805C00E94063083E00E943B1AF2
:103730002AE0A22E8FEF0E94CF19AA94D9F7CE01CA
:103740000E944E1A20E030E0A90160E0CE010E9404
:10375000AD1AF82E8A8781E0F81649F00E948E345F
:10376000601B710B613D774068F381E04BC02AEA32
:1037700031E040E050E068E0CE010E94AD1A82FFE7
:1037800002C0FB860DC094E0F92E0E94051A8A87BC
:10379000FA94D9F78A3A11F082E034C082E08B873C
:1037A0008B85823031F4C12CD12CE12C80E4F82EB1
:1037B00003C0C12CD12C760120E030E0A90167E3E1
:1037C000CE010E94AD1AA701960169E2CE010E94C6
:1037D000AD1A8A87882349F00E948E34601B710BD2
:1037E000613D774048F388E00DC08B858230E1F47D
:1037F00020E030E0A9016AE3CE010E94AD1A8823DF
:1038000031F086E08D83CE010E94491A24C00E94C7
:10381000051A807C803C11F483E08B870E94051A96
:103820000E94051A0E94051ACE010E94491A809131
:103830009E088F3F71F46B2DCE01DF91CF911F91C8
:103840000F91FF90EF90DF90CF90BF90AF900C94CE
:103850006D1AAA24A3948A2DDF91CF911F910F9105
:10386000FF90EF90DF90CF90BF90AF9008950F93AF
:103870001F93CF93DF93EC010E948E348B010E9443
:10388000051A8A878F3F49F40E948E34601B710BA2
:103890006D327140A0F38FE003C08E3F39F08DE0B0
:1038A0008D83CE010E94491A80E001C081E0DF9142
:1038B000CF911F910F910895CF92DF92EF92FF92D7
:1038C0000F931F93CF93DF93EC016901011511054D
:1038D00009F462C0C801820F931F8130924008F042
:1038E0005DC08E81882371F088819981AA81BB8116
:1038F000481759076A077B0729F48F819885C816EE
:10390000D90610F5488359836A837B838B8583307E
:1039100039F0E9E0440F551F661F771FEA95D1F78C
:103920009A01AB0161E1CE010E94AD1A882319F022
:1039300083E08D8333C0CE010E94371C882371F150
:1039400018861F8281E08E838F8198858C159D0556
:1039500040F40E94051A8F819885019698878F837D
:10396000F3CF6701E00EF11ECE14DF0431F00E94A8
:10397000051AF60181936F01F7CF8F819885800F2B
:10398000911F98878F832985222319F081159240F2
:1039900018F0CE010E94531A81E004C0CE010E94AB
:1039A000491A80E0DF91CF911F910F91FF90EF9026
:1039B000DF90CF900895EF92FF920F931F937901BC
:1039C00000E012E020E030E00E945C1C1F910F91AB
:1039D000FF90EF900895AF92BF92CF92DF92EF9257
:1039E000FF920F931F93CF93DF931F921F92CDB738
:1039F000DEB78C01862FF8019485992351F1DA0105
:103A0000E12CF12CA12CB12CED91F0E0EB259F01E4
:103A100064E0359527956A95E1F72E273F27BA2C64
:103A2000AA24A226B326F901FE2FEE27F295F07FF5
:103A3000AE26BF2665E0220F331F6A95E1F7A22666
:103A4000B326FFEFEF1AFF0AE11492E0F906E1F660
:103A500003C0AA24AA94BA2C49835A830E94CF197E
:103A60004981E42E5A81F52EC12CD12CF701819188
:103A70007F010E94CF19FFEFCF1ADF0AC11482E045
:103A8000D806A1F78B2D0E94CF198A2D0E94CF193D
:103A90000E94051AF80182878F71853039F081E123
:103AA0008583C8010E94491A80E001C081E00F901F
:103AB0000F90DF91CF911F910F91FF90EF90DF90CA
:103AC000CF90BF90AF9008950F931F93CF93DF9344
:103AD000EC018901411551056105710511F482E17F
:103AE00032C08B85833039F0E9E0440F551F661FE3
:103AF000771FEA95D1F79A01AB0168E1CE010E94E8
:103B0000AD1A882311F084E01EC0A8016EEFCE012B
:103B10000E94EB1C8823C1F068E572E0CE010E9490
:103B2000921A811102C085E10EC020E030E0A901A7
:103B30006DE0CE010E94AD1A811104C00E94051AE9
:103B4000882339F084E18D83CE010E94491A80E0F8
:103B500004C0CE010E94491A81E0DF91CF911F91EC
:103B60000F910895CF93DF93EC019C012A5F3F4FA3
:103B700041E050E060E070E08B8D9C8D0E94E92771
:103B80008823A1F04F89588D698D7A8D452B462B5E
:103B9000472B71F44E815F81688579854F8B588FF3
:103BA000698F7A8F8C8180688C8302C080E001C02D
:103BB00081E0DF91CF910895CF92DF92EF92FF9253
:103BC0001F93CF93DF93EC010E94B21D811102C0BD
:103BD00080E04BC0EB8DFC8DCE80DF80E884F984E3
:103BE00082E0C81AD108E108F108058404C0CC0CB1
:103BF000DD1CEE1CFF1C0A94D2F7468557856089B0
:103C00007189C40ED51EE61EF71E148181E0C81A04
:103C1000D108E108F108112361F0C701B601610F75
:103C2000711D811D911D0E943326882389F2115038
:103C3000F2CFEB8DFC8DC12C82E0D82EE12CF12C43
:103C4000058404C0CC0CDD1CEE1CFF1C0A94D2F7CA
:103C50004B895C896D897E894C0D5D1D6E1D7F1DB4
:103C60004B8B5C8B6D8B7E8B81E0DF91CF911F91B5
:103C7000FF90EF90DF90CF900895CF93DF93EC010A
:103C8000462F6E857F85888999890E94F82588232B
:103C900041F08A8920E2829FC00111248655974F06
:103CA00002C080E090E0DF91CF910895282FFB01C2
:103CB0008BE030E231938150E9F7A22FB92F20E059
:103CC00037E09D91992319F19E3219F0E0EDF1E072
:103CD00008C03A3011F128E03AE0F3CF31964917A5
:103CE000E1F044914111FACF3217B8F04FED490F8E
:103CF0004E3598F441E0420FFB01E20FF11D2FE930
:103D0000290F2A3108F490529083242FDACF81E0D2
:103D1000FB019081903209F480E008950F931F9386
:103D2000CF93DF93EC018B018D81882311F080E02C
:103D300040C0FB0187898031B1F482E08D831F8A06
:103D4000188E198E1A8E408D518D60E070E095E0CE
:103D5000440F551F661F771F9A95D1F74B8B5C8BCD
:103D60006D8B7E8B15C0803211F783E08D83FB0154
:103D7000428D538D648D758D4F8B588F698F7A8FDF
:103D80009E012D5E3F4FC8010E94DD26882379F2F7
:103D90001C8F0B8F81E08C831E821F8218861986F0
:103DA0001A861B861C861D861E861F86188A198AFF
:103DB0001A8ADF91CF911F910F9108952F923F9210
:103DC0004F925F926F927F928F929F92AF92BF922B
:103DD000CF92DF92EF92FF920F931F93CF93DF93D7
:103DE000EC016B015A018D81811103C08FEF9FEFB0
:103DF000DAC08C8180FFFACF4B895C896D897E891E
:103E00008A859B85AC85BD852501612C712C8A0135
:103E10009B01081B190B2A0B3B0B041515052605E6
:103E2000370518F45A01A81AB90A25011E0126E01F
:103E3000220E311C4114510409F47BC04A855B8574
:103E40006C857D854A0181E09822ED818A019B0184
:103E5000F9E03695279517950795FA95D1F78B8D4B
:103E60009C8DE23051F4FC01628D738D848D958DB3
:103E7000600F711F821F931F3EC0FC0174807A94F3
:103E8000702281149104C9F4711017C0452B462B80
:103E9000472B49F48F89988DA98DBA8D8E839F8386
:103EA000A887B9870AC04E815F81688579859101AD
:103EB0000E945926882309F499CFEB8DFC8D6E81E1
:103EC0007F818885998562507109810991090584EE
:103ED00004C0660F771F881F991F0A94D2F70685C2
:103EE000178520893189600F711F821F931F670D0D
:103EF000711D811D911D20E032E028193909320120
:103F00002415350508F439012C8126FD04C06114FF
:103F1000F2E07F06A1F50091320210913302209168
:103F2000340230913502601771078207930719F444
:103F300026C0C50138C0760183019401AB01BC01E4
:103F40008091A8089091A9080E945C1C882309F41C
:103F50004DCFC60CD71C04C0E81BF90BCE0EDF1EDC
:103F60008A859B85AC85BD85860D971DA11DB11DDC
:103F70008A879B87AC87BD87461857085BCF40E090
:103F80000E94F825882309F431CFC4018655974F44
:103F9000D6019C01260D371DFC01E217F307E1F263
:103FA00041914D93FACFDF91CF911F910F91FF90E7
:103FB000EF90DF90CF90BF90AF909F908F907F90C9
:103FC0006F905F904F903F902F900895FF920F93C6
:103FD0001F93CF93DF931F92CDB7DEB78C01FC0107
:103FE0008581823018F480E090E034C0F801428589
:103FF000538564857585A5E07695679557954795B2
:10400000AA95D1F7F42FFF70FF2E41E050E0BE01DA
:104010006F5F7F4FC8010E94DE1E019719F429814E
:1040200030E002C02FEF3FEF2F3F3F4FE1F2F801AA
:104030004285538564857585415E5F4F6F4F7F4F25
:104040004287538764877587F0E2FF9EC001112481
:104050008655974F0F90DF91CF911F910F91FF9051
:1040600008954F925F926F927F92AF92BF92CF92DC
:10407000DF92EF92FF920F931F93CF93DF93EC01A8
:104080006A017B012D81222309F457C08B899C8909
:10409000AD89BE8984179507A607B70708F44DC0F8
:1040A0004EC08A859B85AC85BD85EB8DFC8DE585F5
:1040B000F0E03996AC01BD01415051096109710927
:1040C0000E2E04C076956795579547950A94D2F7BA
:1040D00097018601015011092109310904C0369563
:1040E000279517950795EA95D2F704171507260720
:1040F0003707B0F58F89988DA98DBA8D8E839F83F0
:10410000A887B987280139015E0186E0A80EB11C95
:10411000411451046104710461F14E815F8168852D
:10412000798595018B8D9C8D0E94592691E0491AC5
:104130005108610871088111EBCF80E01FC0223067
:10414000C1F0C114D104E104F10409F0AACF1E8228
:104150001F82188619861A861B861C861D860DC02E
:10416000892B8A2B8B2B31F2041B150B260B370B5B
:10417000C9CFCA86DB86EC86FD8681E0DF91CF91D0
:104180001F910F91FF90EF90DF90CF90BF90AF9075
:104190007F906F905F904F9008950F931F93CF93F0
:1041A000DF93EC018D818823C9F18C8187FF30C0BA
:1041B00061E0CE010E943D1E8C01009779F18D8156
:1041C000823048F44B895C896D897E89F801448F7F
:1041D000558F668F778F4F89588D698D7A8DF8014D
:1041E000538F428F758B648BE091A108F091A208E8
:1041F000309759F0B8016A5E7F4FC801489619950B
:10420000F801808D918D938B828B8C818F778C833D
:10421000DF91CF911F910F910C94BD2580E0DF912C
:10422000CF911F910F910895CF93DF93EC010E94DE
:10423000CD20882319F01D8281E001C080E0DF914C
:10424000CF9108954F925F926F927F92AF92BF92FB
:10425000CF92DF92EF92FF920F931F93CF93DF9352
:1042600000D01F92CDB7DEB75C016A017B01FC0173
:1042700085818130F1F4848181FF1BC0F501838940
:104280009489A589B68984179507A607B70788F08A
:10429000892B8A2B8B2B09F479C0F5014284538436
:1042A00064847584B701A601C5010E943120811183
:1042B00002C080E06CC0F501838D948DC114D104DF
:1042C000E104F10471F44789508D618D728D0E9473
:1042D000FE28882371F3F501178A108E118E128E35
:1042E0003AC0F50146815781608571859E012F5F37
:1042F0003F4F0E9459268823E1F249815A816B8100
:104300007C81F501838D948DFC012789203129F46E
:1043100008EF1FEF20E030E004C008EF1FEF2FEFA1
:104320003FE04017510762077307A8F40E94FE2878
:10433000882309F4BECFF5014681578160857185D8
:104340000FEF1FEF2FEF3FE0838D948D0E944827E2
:10435000882309F4AECFF501C38AD48AE58AF68AA8
:10436000848180688483C5010E94CD20882309F45C
:10437000A0CFB701A6014C145D046E047F0410F4B5
:10438000B301A201C5010E94312001C081E00F905C
:104390000F900F900F90DF91CF911F910F91FF9091
:1043A000EF90DF90CF90BF90AF907F906F905F9035
:1043B0004F900895FF920F931F93CF93DF93EC01DB
:1043C000F42E80E2689FF0011124E655F74F8385B3
:1043D000817129F0842F827411F080E053C06A8BC0
:1043E0008091320290913302A0913402B091350253
:1043F0008E879F87A88BB98B4489558960E070E0D0
:10440000BA0155274427028D138D20E030E0402B60
:10441000512B622B732B4F8B588F698F7A8F83852B
:10442000887151F4048D158D268D378D0B8B1C8B67
:104430002D8B3E8B81E00CC0803179F69E012D5E84
:104440003F4F8B8D9C8D0E94DD26882331F284E0C6
:104450008D838F2D8F708C831E821F821886198604
:104460001A861B861C861D86F6FE0BC040E050E0B7
:10447000BA01CE01DF91CF911F910F91FF900C9463
:10448000222181E0DF91CF911F910F91FF9008953C
:10449000AF92BF92CF92DF92EF92FF920F931F9352
:1044A000CF93DF93CDB7DEB72B970FB6F894DEBF6F
:1044B0000FBECDBF7C016B01CA01B22EF701258171
:1044C0002111B9C0BE016F5F7F4F0E94561E882325
:1044D00009F4B1C0F601838D948DF701948F838F19
:1044E000F6011682178210861186128613861486AC
:1044F0001586A12CF60102851385248535858389CF
:104500009489A589B689081719072A073B07E8F592
:1045100045E036952795179507954A95D1F70F7081
:10452000C6010E94E61F009709F485C0FC012081A6
:10453000222311F0253EB9F4A1100EC0F701028B21
:1045400040913202509133026091340270913502F1
:1045500046875787608B718BFC018081AA24A394C6
:104560008111C8CF12C04BE050E0BC01CE010196D2
:104570000E94643F892B09F0BDCF8B2D807380335F
:1045800009F459C04B2D602F52C08B2D827182319E
:1045900009F051C0AA2041F061E0C7010E943D1E10
:1045A0008C01009779F447C0F6018581823009F4C7
:1045B00042C0C6010E94DC1D8823E9F1F701128A7E
:1045C0000AEA18E080E2F80111928A95E9F78BE097
:1045D000FE013196D80101900D928A95E1F7E091A4
:1045E000A108F091A208309739F0B801625F7F4FBF
:1045F000C8014096199509C081E298E2F801918BB3
:10460000808B80E098E097878687F8018089918980
:10461000938B828B918F808F86859785978B868BE6
:104620000E94BD25882339F04B2DF7016289C7010F
:104630000E94DA2101C080E02B960FB6F894DEBF0D
:104640000FBECDBFDF91CF911F910F91FF90EF90E3
:10465000DF90CF90BF90AF9008954F925F926F928E
:104660007F929F92AF92BF92CF92DF92EF92FF9292
:104670000F931F93CF93DF93CDB7DEB7A0970FB6FD
:10468000F894DEBF0FBECDBF8C017B0123E30E94F7
:104690004822882309F4AAC081E0D80114968C939B
:1046A000149784E015968C93C8010E94DC1D882322
:1046B00009F49CC0C8010E94CD20882309F496C04B
:1046C00061E0C8010E943D1E009709F48FC020E1FF
:1046D000FC01238720E2DE01119601900D922A95BC
:1046E000E1F7DC015496AD90BC9055975A96CD9069
:1046F000DC905B97FE013296CE010C9620E221936E
:10470000E817F907E1F75EE2952E9982D8015B96EA
:10471000ED91FC915C9757966D917D918D919C9157
:104720005A976250710981099109058404C0660F86
:10473000771F881F991F0A94D2F746845784608890
:104740007188640D751D861D971D41E00E94F82536
:10475000882309F44BC0BE8AAD8ADC8ECB8E80E202
:10476000FE013196AAEAB8E001900D928A95E1F730
:104770009A82F70185818250823038F08789908D46
:10478000A18DB28D9C01CD0104C020E030E080E01D
:1047900090E09E8B8D8B3C8F2B8F80E2FE013196BB
:1047A000AAECB8E001900D928A95E1F780E490E0E0
:1047B000A0E0B0E0F80182879387A487B587A09630
:1047C0000FB6F894DEBF0FBECDBFDF91CF911F9122
:1047D0000F91FF90EF90DF90CF90BF90AF909F90A0
:1047E0007F906F905F904F900C94BD2580E0A096D5
:1047F0000FB6F894DEBF0FBECDBFDF91CF911F91F2
:104800000F91FF90EF90DF90CF90BF90AF909F906F
:104810007F906F905F904F9008952F923F924F92AC
:104820005F926F927F928F929F92AF92BF92CF9240
:10483000DF92EF92FF920F931F93CF93DF9300D0FD
:104840001F921F92CDB7DEB78C017B013A01DC01CC
:1048500015968C9115978130C9F414968C9181FF2F
:1048600015C082FF1BC0F801438954896589768988
:1048700082859385A485B58584179507A607B70714
:1048800069F0C8010E943120811108C081E090E0E8
:10489000F8019383828380E090E046C1630180C089
:1048A000D8015B968D919C915C97FC01F481F1504D
:1048B000B501A40129E076956795579547952A9506
:1048C000D1F7F423FD8321E09222FF2309F474C081
:1048D00080E092E08819990956018C159D0508F42D
:1048E0005C01D8015B96ED91FC915C9716962D903A
:1048F0003D904D905C901997B2E02B1A3108410819
:104900005108058404C0220C331C441C551C0A9415
:10491000D2F786859785A089B189280E391E4A1E4F
:104920005B1EED812E0E311C411C511CA114F2E0C6
:10493000BF0609F088C08091320290913302A091A5
:104940003402B091350282159305A405B50559F4DA
:104950008FEF9FEFDC018093320290933302A0939C
:104960003402B09335029701B201A1018091A808E9
:104970009091A9080E94641D882309F487CF9EEFB7
:10498000F91ACA18DB08F80182859385A485B585D4
:104990008A0D9B1DA11DB11D82879387A487B587B2
:1049A000D8011A968D909D90AD90BC901D97C11422
:1049B000D10409F075CF8AC08114910409F088CF21
:1049C00016964D915D916D917C9119974115510508
:1049D0006105710559F457968D919D910D90BC918B
:1049E000A02D0097A105B10541F521C09E012F5FC3
:1049F0003F4F0E945926882309F44ECF89819A811E
:104A0000AB81BC81F801238D348DF90127892031D8
:104A100029F448EF5FEF60E070E004C048EF5FEF1B
:104A20006FEF7FE084179507A607B70730F0C8013E
:104A30000E94B21D81114CCF29CFF8018683978344
:104A4000A087B18745CF8114910429F5D8011A9622
:104A50004D915D916D917C911D9753968D919D9196
:104A60000D90BC91A02D481759076A077B0798F055
:104A70000E94BD25882309F409CF2092320230928A
:104A8000330240923402509235028091A70881602F
:104A90008093A70808C041E0C201B1010E94F82537
:104AA000882309F4F3CEC4018655974FD7019C01A2
:104AB0002A0D3B1DFC01E217F30719F04D914193BC
:104AC000FACFE81BF90BEE0EFF1E5BCF53968D91CC
:104AD0009D910D90BC91A02DF80124818815990518
:104AE000AA05BB0538F4838A948AA58AB68A206809
:104AF00024830CC08091A1089091A208892B31F0E9
:104B00006114710419F02068F8012483D801149607
:104B10008C9183FD02C0C30107C0C8010E94CD2053
:104B2000882309F4B3CEF7CF0F900F900F900F901A
:104B30000F90DF91CF911F910F91FF90EF90DF9039
:104B4000CF90BF90AF909F908F907F906F905F902D
:104B50004F903F902F900895CF93DF931F92CDB742
:104B6000DEB7698341E050E0BE016F5F7F4F0E9476
:104B70000D240F90DF91CF9108958091A70888238D
:104B800099F1409132025091330260913402709158
:104B900035022AEA38E08091A8089091A9080E947D
:104BA000641D882319F14091A3085091A4086091D5
:104BB000A5087091A608411551056105710591F090
:104BC0002AEA38E08091A8089091A9080E94641D03
:104BD000882361F01092A3081092A4081092A508EF
:104BE0001092A6081092A70881E0089580E0089529
:104BF000CF92DF92EF92FF92CF936B017C01C42F93
:104C00008091320290913302A0913402B09135022A
:104C10008C159D05AE05BF05D1F00E94BD25811103
:104C200002C080E01AC02AEA38E0B701A6018091EC
:104C3000A8089091A9080E94DB1C882391F3C092D8
:104C40003202D0923302E0923402F0923502809127
:104C5000A7088C2B8093A70881E0CF91FF90EF905D
:104C6000DF90CF900895CF92DF92EF92FF926B0189
:104C70007C010E94BD258823B1F0EAEAF8E0119298
:104C80008AE0EA3AF807D9F7C0923202D0923302AA
:104C9000E0923402F09235028091A70881608093FF
:104CA000A70881E001C080E0FF90EF90DF90CF90F7
:104CB00008958F929F92AF92BF92CF92DF92EF9220
:104CC000FF920F931F93CF93DF938C016A017B01B7
:104CD000E901FC0181859285A385B4850196A11D1A
:104CE000B11D84179507A607B70710F480E058C0D8
:104CF000F80143895489658976898789803129F447
:104D0000BB27AF2D9E2D8D2D09C0D701C60127E0F1
:104D1000B695A795979587952A95D1F74C015D0192
:104D2000840E951EA61EB71EC501B40180903202E6
:104D300090903302A0903402B09035026815790546
:104D40008A059B0589F4F8018789803199F4DD246F
:104D5000EE24FF24F601EE0FFF1FE655F74F80818A
:104D60009181A0E0B0E017C040E00E94F8258111D9
:104D7000EACFBCCFE894C7F8DD24EE24FF24F60187
:104D8000EE0FFF1FEE0FFF1FE655F74F8081918159
:104D9000A281B381BF7088839983AA83BB8381E09A
:104DA000DF91CF911F910F91FF90EF90DF90CF9007
:104DB000BF90AF909F908F9008954F925F926F92A7
:104DC0007F92AF92BF92CF92DF92EF92FF920F93BA
:104DD0001F93CF93DF9300D01F92CDB7DEB78C0126
:104DE00049835A836B837C835901C12CD12C760172
:104DF000412C42E0542E612C712C49815A816B81E7
:104E00007C819E012F5F3F4FC8010E945926882355
:104E100059F1D301C201F801058404C0880F991F1C
:104E2000AA1FBB1F0A94D2F7C80ED91EEA1EFB1E8A
:104E300049815A816B817C818789803129F488EF8F
:104E40009FEFA0E0B0E004C088EF9FEFAFEFBFE0BE
:104E5000481759076A077B0780F2F501C082D182A3
:104E6000E282F38281E001C080E00F900F900F900A
:104E70000F90DF91CF911F910F91FF90EF90DF90F6
:104E8000CF90BF90AF907F906F905F904F900895BC
:104E90004F925F926F927F928F929F92AF92BF924A
:104EA000CF92DF92EF92FF920F931F93CF93DF93F6
:104EB000EC016A017B01280139014230510561058D
:104EC000710508F474C049855A856B857C854F5FF0
:104ED0005F4F6F4F7F4F4C155D056E057F0508F4E2
:104EE00066C08B889C88AD88BE888F89803129F404
:104EF00077276F2D5E2D4D2D09C0B701A601E7E084
:104F00007695679557954795EA95D1F7840E951E46
:104F1000A61EB71E409132025091330260913402B6
:104F20007091350284169506A606B70671F48F892E
:104F3000803199F4DD24EE24FF24F601EE0FFF1FEB
:104F4000E655F74F5182408218C040E0C501B401D8
:104F50000E94F8258111EBCF2AC0E894C7F8DD2420
:104F6000EE24FF24F601EE0FFF1FEE0FFF1FE655A4
:104F7000F74F40825182628273828091A7088160DC
:104F80008093A7088A89823080F08D819E81AF81CD
:104F9000B885880D991DAA1DBB1D8093A308909309
:104FA000A408A093A508B093A60881E001C080E002
:104FB000DF91CF911F910F91FF90EF90DF90CF90F5
:104FC000BF90AF909F908F907F906F905F904F9029
:104FD00008952F923F924F925F926F927F929F928D
:104FE000AF92BF92CF92DF92EF92FF920F931F93F7
:104FF000CF93DF93CDB7DEB760970FB6F894DEBFDF
:105000000FBECDBF5C014D875E876F87788B19011E
:10501000D9014D905D906D907C90411451046104D4
:10502000710431F0BFEF4B1A5B0A6B0A7B0A10C0A8
:10503000FC014080518062807380992493940D8597
:105040001E852F853889013011052105310509F0AC
:10505000912CD50119962D913D914D915C911C9704
:105060002F5F3F4F4F4F5F4F29873A874B875C87B2
:10507000730162011D821E821F821886F5018185DF
:105080009285A385B4850D811E812F8138850817EF
:1050900019072A073B0708F056C029853A854B8532
:1050A0005C852C153D054E055F0550F4A2E0CA2E27
:1050B000D12CE12CF12CB2E04B2E512C612C712C17
:1050C0009E012F5F3F4FB701A601C5010E945926DF
:1050D0008823C9F149815A816B817C81D701C6013E
:1050E0000196A11DB11D452B462B472B19F02C0114
:1050F0003D010FC0AC01BD0144195509660977098E
:105100000D851E852F853889401751076207730763
:1051100079F02D813E814F8158852F5F3F4F4F4F52
:105120005F4F2D833E834F8358876C017D01A6CF4F
:105130000FEF1FEF2FEF3FE0B701A601C5010E945F
:105140004827811118C080E041C0D701C6010197EE
:10515000A109B1098D839E83AF83B887970186012A
:10516000AC01BD01C5010E944827882361F3CD80B1
:10517000DE80EF80F8844C145D046E047F0428F315
:10518000D1014D915D916D917C9141155105610564
:10519000710599F4F10140825182628273829920F3
:1051A000A1F0FFEF4F1A5F0A6F0A7F0AD5014D92F7
:1051B0005D926D927C92139708C093018201C501A4
:1051C0000E9448278111E6CFBECF81E060960FB6DE
:1051D000F894DEBF0FBECDBFDF91CF911F910F912D
:1051E000FF90EF90DF90CF90BF90AF909F907F9017
:1051F0006F905F904F903F902F900895AF92BF9225
:10520000CF92DF92EF92FF920F931F93CF93DF9392
:1052100000D01F92CDB7DEB75C016A017B0182E04E
:1052200090E0A0E0B0E0F50180839183A283B38396
:105230009E012F5F3F4FB701A601C5010E9459266D
:10524000882311F100E010E09801B701A601C50123
:105250000E9448278823C1F0C980DA80EB80FC8057
:10526000F5018789803129F488EF9FEFA0E0B0E055
:1052700004C088EF9FEFAFEFBFE0C816D906EA067B
:10528000FB06B0F281E001C080E00F900F900F901C
:105290000F90DF91CF911F910F91FF90EF90DF90D2
:1052A000CF90BF90AF9008958F929F92AF92BF9290
:1052B000CF92DF92EF92FF920F931F93CF93DF93E2
:1052C000EC01142F7093A9086093A808442341F1BE
:1052D000453010F080E0EFC040E060E070E0CB01CE
:1052E0000E94F8258823B1F320E1129FF0011124D8
:1052F000E85AF54F80818F7769F784859585A68573
:10530000B78584369105A105B10520F3C084D18409
:10531000E284F384C114D104E104F10421F4DACF6E
:10532000C12CD12C760140E0C701B6010E94F825BE
:10533000882381F28091B5089091B608811592403A
:1053400049F63091BA08332329F28091B808909138
:10535000B908892B09F4BECF2091B708222309F49C
:10536000B9CF3A8B2C831D8630E041E050E06D854B
:10537000062FCA01062E02C0880F991F0A94E2F771
:105380002817390731F081E0860F8D87683078F370
:10539000A1CF2091C0083091C1082115310519F025
:1053A00040E050E008C02091CE083091CF084091F5
:1053B000D0085091D1082D833E834F835887809128
:1053C000B8089091B90846015701880E991EA11C92
:1053D000B11C8B8A9C8AAD8ABE8AE091BB08F09191
:1053E000BC08F98FE88FA091BA08B0E00E940A3D8E
:1053F000680D791D8A1D9B1D6A8F7B8F8C8F9D8FF9
:1054000015E0EE0FFF1F1A95E1F7E150FE4FEF2F69
:10541000FF27E695DC01CB018E0F9F1FA11DB11D5B
:105420008E879F87A88BB98B8090BD089090BE080F
:105430008114910419F0A12CB12C08C08090CA08E5
:105440009090CB08A090CC08B090CD08A701960111
:10545000281B390B4A0B5B0BDA01C901880D991D1A
:10546000AA1DBB1D04C0B695A795979587950A956B
:10547000D2F789879A87AB87BC87853F3FE0930740
:10548000A105B10510F48CE014C0853F9F4FA10524
:10549000B10510F480E10DC08091D6089091D70835
:1054A000A091D808B091D9088A8F9B8FAC8FBD8FFF
:1054B00080E28F8B81E0DF91CF911F910F91FF9060
:1054C000EF90DF90CF90BF90AF909F908F90089516
:1054D000CF93DF93EC0160E08E810E94DF3581E0A5
:1054E00090E00E94E53461E08E810E94DF3581E02A
:1054F00090E00E94E53460E08E810E94DF3584E612
:1055000090E0DF91CF910C94E534EF92FF920F93EE
:105510001F93CF93DF938C01C0E0D0E0E62EF12CF7
:10552000B7010C2E02C0759567950A94E2F7617079
:10553000F801EC0FFD1F87810E94DF352196C430F2
:10554000D10571F7C801DF91CF911F910F91FF90A5
:10555000EF900C94682AEF92FF920F931F93CF93D2
:10556000DF938C01C0E0D0E0E62EF12CB7010C2EC9
:1055700002C0759567950A94E2F76170F801EC0F27
:10558000FD1F87810E94DF352196C830D10571F754
:10559000C801DF91CF911F910F91FF90EF900C9474
:1055A000682A1F93CF93DF93EC01162F642F8C8111
:1055B0000E94DF358D818F3F19F060E00E94DF355A
:1055C0008F85612F84FF06C0CE01DF91CF911F919F
:1055D0000C94AB2A70E084E0759567958A95E1F7A5
:1055E000CE010E94852A612FCE01DF91CF911F91BC
:1055F0000C94852A40E00C94D12A61E00E94FA2A9A
:1056000080ED97E00C94E534443008F043E0FC0171
:105610002389421710F04FEF420FFC01E40FF11DF8
:105620002489260F2068622F0C94FA2AFC016089D5
:10563000262F2460208B6C600C94FA2A0F931F9302
:10564000CF93DF93EC01423018F08F8588608F870D
:105650004B8B1C8A80E48D8B6E8B70E0605C7F4F7F
:105660006F8B222329F0413019F48F8584608F8756
:1056700061E08C810E94A6358D818F3F19F061E039
:105680000E94A63561E08E810E94A63500E010E000
:105690008F8584FF03C088E090E002C084E090E042
:1056A0000817190754F4FE01E00FF11F61E087812C
:1056B0000E94A6350F5F1F4FEBCF80E593EC0E9451
:1056C000E53460E08C810E94DF3560E08E810E94CD
:1056D000DF358D818F3F19F060E00E94DF356F85E7
:1056E00064FD1DC063E0CE010E94852A84E991E13A
:1056F0000E94E53463E0CE010E94852A84E991E1AD
:105700000E94E53463E0CE010E94852A86E990E09C
:105710000E94E53462E0CE010E94852A16C06062D4
:10572000CE010E94FA2A84E991E10E94E5346F8556
:105730006062CE010E94FA2A86E990E00E94E53478
:105740006F856062CE010E94FA2A6F856062CE0189
:105750000E94FA2A84E0888BCE010E94162BCE018B
:105760000E94FD2A82E0898B66E0CE01DF91CF9115
:105770001F910F910C94FA2ACF92EF920F93FC0194
:105780001382128285E795E09183808364838FEF93
:105790008583468327830087E186C2861386148625
:1057A00015861686178620E041E060E1CF010F9153
:1057B000EF90CF900C941E2BCF92DF92EF92FF923E
:1057C0000F931F93CF93DF931F921F92CDB7DEB736
:1057D0008C01677088E0689FB00111246064C80183
:1057E00049835A830E94FA2A4981C42E5A81D52EB0
:1057F000E12CF12CD6016D916D01D801ED91FC9158
:105800000190F081E02DC8011995BFEFEB1AFB0A5A
:10581000E8E0EE16F10471F70F900F90DF91CF9151
:105820001F910F91FF90EF90DF90CF90089541E08E
:105830000E94D12A81E090E008956AE00E94B33C82
:1058400020E1829F900D1124892F0895982F929521
:105850009F708F702AE0929F800D1124089583EE2F
:105860009AE00C949931CF93DF93EC0168E670E0F5
:1058700083EE9AE00E94AD3160E083EE9AE00E94F0
:105880005A3188810E941D2C682F83EE9AE00E9475
:105890005A3189810E941D2C682F83EE9AE00E9464
:1058A0005A318A810E941D2C682F83EE9AE00E9453
:1058B0005A318B810E941D2C682F83EE9AE00E9442
:1058C0005A318C810E941D2C682F83EE9AE00E9431
:1058D0005A318D810E941D2C682F83EE9AE00E9420
:1058E0005A318E818E510E941D2C682F83EE9AE0D2
:1058F0000E945A3183EE9AE00E942632882321F0DA
:105900001092AA0A80E003C081E08093AA0ADF9186
:10591000CF9108951F93CF93DF93EC0168E670E079
:1059200083EE9AE00E94AD3160E083EE9AE00E943F
:105930005A3183EE9AE00E942632882319F01092A1
:10594000AA0A4CC081E08093AA0A47E050E068E6CA
:1059500070E083EE9AE00E94233283EE9AE00E9488
:1059600002310797DCF183EE9AE00E940A31182F8A
:105970008F770E94262C888383EE9AE00E940A315A
:105980000E94262C898383EE9AE00E940A318F734D
:105990000E94262C8A8383EE9AE00E940A310E949C
:1059A000262C8B8383EE9AE00E940A310E94262CDB
:1059B0008C8383EE9AE00E940A310E94262C8D830C
:1059C00083EE9AE00E940A310E94262C825E8E832A
:1059D000812F8095881F8827881F01C080E0DF9174
:1059E000CF911F910895862F642F0C94A635862F92
:1059F000642F0C94DF35862F0C9415364F925F92EE
:105A00006F927F928F929F92AF92BF92CF92DF92CE
:105A1000EF920F93CF93DF93EC014B013A015901C1
:105A200002960E9400308DE795E0998388836E018D
:105A30008CE1C80ED11C26018CE3480E511CC60116
:105A40000E94003086E0C80ED11CC414D504B9F7FA
:105A5000FE01EE59FF4F718260823296B182A082C0
:105A6000329600833196E082379791828082389611
:105A70008AE090E091838083329684EF91E0918375
:105A80008083339611821082719710821182128264
:105A90001382C459DF4F1882DF91CF910F91EF909D
:105AA000DF90CF90BF90AF909F908F907F906F903E
:105AB0005F904F9008952F923F924F925F926F9216
:105AC0007F928F929F92AF92BF92CF92DF92EF928E
:105AD000FF920F931F93CF93DF93CDB7DEB7289735
